:100000000C9434000C9449000C9449000C94490061
:100010000C9449000C9449000C9449000C9449003C
:100020000C9449000C9449000C9449000C9449002C
:100030000C9449000C9449000C9449000C9449001C
:100040000C9449000C9449000C9449000C9449000C
:100050000C9449000C9449000C9449000C944900FC
:100060000C9449000C94490011241FBECFEFD8E036
:10007000DEBFCDBF11E0A0E0B1E0ECECF3E002C0E8
:1000800005900D92A630B107D9F70E946E010C942D
:10009000E4010C940000DF93CF9300D000D00F92C6
:1000A000CDB7DEB769837A838B839C8389819A81FC
:1000B000AB81BC8125E731E040E050E0BC01CD01DF
:1000C0000E94C501DC01CB0189839A83AB83BC8389
:1000D0001D8289819A81AB81BC810097A105B10500
:1000E00011F081E08D8389819A81AB81BC81019778
:1000F000A109B10989839A83AB83BC838D8188234D
:1001000039F70F900F900F900F900F90CF91DF91D4
:100110000895DF93CF93CDB7DEB7E4ECF0E087E648
:100120008083E5ECF0E01082A1ECB0E0E1ECF0E0DF
:10013000808188618C93A2ECB0E0E2ECF0E08081F9
:1001400086608C93A1ECB0E0E1ECF0E08081806807
:100150008C93CF91DF910895DF93CF930F92CDB71A
:10016000DEB78983E0ECF0E08081882F90E0807238
:1001700090700097B9F3E6ECF0E0898180830F90EE
:10018000CF91DF910895DF93CF9300D00F92CDB739
:10019000DEB79B838A83198210C08981282F30E0C3
:1001A0008A819B81FC01E20FF31F8081982F898156
:1001B0008F5F8983892F0E94AC008981282F30E0CE
:1001C0008A819B81FC01E20FF31F8081882329F73C
:1001D0000F900F900F90CF91DF910895DF93CF9301
:1001E000CDB7DEB7E0ECF0E080818823DCF7E6EC09
:1001F000F0E08081CF91DF9108950F931F93DF93FB
:10020000CF9300D000D0CDB7DEB79B838A8319820D
:100210008981282F30E08A819B818C01020F131F76
:100220000E94EE00F80180838981282F30E08A81C6
:100230009B81FC01E20FF31F80811C828A3011F048
:10024000F1E0FC8389818F5F89838C81882301F7AA
:100250008981882F90E09C01215030408A819B81C8
:10026000FC01E20FF31F10820F900F900F900F9080
:10027000CF91DF911F910F910895DF93CF9300D01D
:100280000F92CDB7DEB79B838A83198210C0898114
:10029000282F30E08A819B81FC01E20FF31F8081CF
:1002A000982F89818F5F8983892F0E94AC00898173
:1002B000282F30E08A819B81FC01E20FF31F8081AF
:1002C000882329F78DE00E94AC008AE00E94AC00F0
:1002D0000F900F900F90CF91DF910895DF93CF9300
:1002E000CDB7DEB72C970FB6F894DEBF0FBECDBFEB
:1002F000CE01029699878887E0E0F1E0FB87EA87E4
:10030000F6E0FC87EA85FB8500808A859B8501965F
:100310009B878A87E885F98500828885998501967B
:10032000998788879C8591509C87EC85EE2351F7AF
:10033000A5E4B0E0E5E4F0E0808185608C9319826B
:100340000E948900E6E4F0E01082E5E3F0E08081BD
:10035000882F90E0817090700097B9F3A5E3B0E02A
:10036000E5E3F0E0808181608C9389818F5F8983F0
:1003700089818E3139F7CE0102960E94C3008AE04E
:1003800090E00E94AC001982DDCF629FD001739F84
:10039000F001829FE00DF11D649FE00DF11D929F21
:1003A000F00D839FF00D749FF00D659FF00D992760
:1003B000729FB00DE11DF91F639FB00DE11DF91F84
:0C03C000BD01CF0111240895F894FFCF77
:0603CC0048616C6C6F003B
:00000001FF
